{
  "data": {
    "bytecode": {
      "linkReferences": {},
      "object": "608060405234801561000f575f80fd5b5061029e8061001d5f395ff3fe608060405234801561000f575f80fd5b5060043610610034575f3560e01c80638dbdbe6d14610038578063c314efb114610054575b5f80fd5b610052600480360381019061004d919061016a565b61005e565b005b61005c61009e565b005b7f1d7a36d58979f9339c530feffb8c3c27c14745dea02f2f7a9233a61cbda3d22e838383604051610091939291906101d8565b60405180910390a1505050565b7f32eae236d65a381516942b87a86ced8c68697f6b299ba29bcf7863fbce1300926104d26040516100cf919061024f565b60405180910390a1565b5f80fd5b5f819050919050565b6100ef816100dd565b81146100f9575f80fd5b50565b5f8135905061010a816100e6565b92915050565b5f73ffffffffffffffffffffffffffffffffffffffff82169050919050565b5f61013982610110565b9050919050565b6101498161012f565b8114610153575f80fd5b50565b5f8135905061016481610140565b92915050565b5f805f60608486031215610181576101806100d9565b5b5f61018e868287016100fc565b935050602061019f868287016100fc565b92505060406101b086828701610156565b9150509250925092565b6101c3816100dd565b82525050565b6101d28161012f565b82525050565b5f6060820190506101eb5f8301866101ba565b6101f860208301856101ba565b61020560408301846101c9565b949350505050565b5f819050919050565b5f819050919050565b5f61023961023461022f8461020d565b610216565b6100dd565b9050919050565b6102498161021f565b82525050565b5f6020820190506102625f830184610240565b9291505056fea2646970667358221220b0042c89dbd1badb3b6c2270db707492b10e2081b7194cae984d4888e0fb093a64736f6c63430008180033",
      "opcodes": "PUSH1 0x80 PUSH1 0x40 MSTORE CALLVALUE DUP1 ISZERO PUSH2 0xF JUMPI PUSH0 DUP1 REVERT JUMPDEST POP PUSH2 0x29E DUP1 PUSH2 0x1D PUSH0 CODECOPY PUSH0 RETURN INVALID PUSH1 0x80 PUSH1 0x40 MSTORE CALLVALUE DUP1 ISZERO PUSH2 0xF JUMPI PUSH0 DUP1 REVERT JUMPDEST POP PUSH1 0x4 CALLDATASIZE LT PUSH2 0x34 JUMPI PUSH0 CALLDATALOAD PUSH1 0xE0 SHR DUP1 PUSH4 0x8DBDBE6D EQ PUSH2 0x38 JUMPI DUP1 PUSH4 0xC314EFB1 EQ PUSH2 0x54 JUMPI JUMPDEST PUSH0 DUP1 REVERT JUMPDEST PUSH2 0x52 PUSH1 0x4 DUP1 CALLDATASIZE SUB DUP2 ADD SWAP1 PUSH2 0x4D SWAP2 SWAP1 PUSH2 0x16A JUMP JUMPDEST PUSH2 0x5E JUMP JUMPDEST STOP JUMPDEST PUSH2 0x5C PUSH2 0x9E JUMP JUMPDEST STOP JUMPDEST PUSH32 0x1D7A36D58979F9339C530FEFFB8C3C27C14745DEA02F2F7A9233A61CBDA3D22E DUP4 DUP4 DUP4 PUSH1 0x40 MLOAD PUSH2 0x91 SWAP4 SWAP3 SWAP2 SWAP1 PUSH2 0x1D8 JUMP JUMPDEST PUSH1 0x40 MLOAD DUP1 SWAP2 SUB SWAP1 LOG1 POP POP POP JUMP JUMPDEST PUSH32 0x32EAE236D65A381516942B87A86CED8C68697F6B299BA29BCF7863FBCE130092 PUSH2 0x4D2 PUSH1 0x40 MLOAD PUSH2 0xCF SWAP2 SWAP1 PUSH2 0x24F JUMP JUMPDEST PUSH1 0x40 MLOAD DUP1 SWAP2 SUB SWAP1 LOG1 JUMP JUMPDEST PUSH0 DUP1 REVERT JUMPDEST PUSH0 DUP2 SWAP1 POP SWAP2 SWAP1 POP JUMP JUMPDEST PUSH2 0xEF DUP2 PUSH2 0xDD JUMP JUMPDEST DUP2 EQ PUSH2 0xF9 JUMPI PUSH0 DUP1 REVERT JUMPDEST POP JUMP JUMPDEST PUSH0 DUP2 CALLDATALOAD SWAP1 POP PUSH2 0x10A DUP2 PUSH2 0xE6 JUMP JUMPDEST SWAP3 SWAP2 POP POP JUMP JUMPDEST PUSH0 PUSH20 0xFFFFFFFFFFFFFFFFFFFFFFFFFFFFFFFFFFFFFFFF DUP3 AND SWAP1 POP SWAP2 SWAP1 POP JUMP JUMPDEST PUSH0 PUSH2 0x139 DUP3 PUSH2 0x110 JUMP JUMPDEST SWAP1 POP SWAP2 SWAP1 POP JUMP JUMPDEST PUSH2 0x149 DUP2 PUSH2 0x12F JUMP JUMPDEST DUP2 EQ PUSH2 0x153 JUMPI PUSH0 DUP1 REVERT JUMPDEST POP JUMP JUMPDEST PUSH0 DUP2 CALLDATALOAD SWAP1 POP PUSH2 0x164 DUP2 PUSH2 0x140 JUMP JUMPDEST SWAP3 SWAP2 POP POP JUMP JUMPDEST PUSH0 DUP1 PUSH0 PUSH1 0x60 DUP5 DUP7 SUB SLT ISZERO PUSH2 0x181 JUMPI PUSH2 0x180 PUSH2 0xD9 JUMP JUMPDEST JUMPDEST PUSH0 PUSH2 0x18E DUP7 DUP3 DUP8 ADD PUSH2 0xFC JUMP JUMPDEST SWAP4 POP POP PUSH1 0x20 PUSH2 0x19F DUP7 DUP3 DUP8 ADD PUSH2 0xFC JUMP JUMPDEST SWAP3 POP POP PUSH1 0x40 PUSH2 0x1B0 DUP7 DUP3 DUP8 ADD PUSH2 0x156 JUMP JUMPDEST SWAP2 POP POP SWAP3 POP SWAP3 POP SWAP3 JUMP JUMPDEST PUSH2 0x1C3 DUP2 PUSH2 0xDD JUMP JUMPDEST DUP3 MSTORE POP POP JUMP JUMPDEST PUSH2 0x1D2 DUP2 PUSH2 0x12F JUMP JUMPDEST DUP3 MSTORE POP POP JUMP JUMPDEST PUSH0 PUSH1 0x60 DUP3 ADD SWAP1 POP PUSH2 0x1EB PUSH0 DUP4 ADD DUP7 PUSH2 0x1BA JUMP JUMPDEST PUSH2 0x1F8 PUSH1 0x20 DUP4 ADD DUP6 PUSH2 0x1BA JUMP JUMPDEST PUSH2 0x205 PUSH1 0x40 DUP4 ADD DUP5 PUSH2 0x1C9 JUMP JUMPDEST SWAP5 SWAP4 POP POP POP POP JUMP JUMPDEST PUSH0 DUP2 SWAP1 POP SWAP2 SWAP1 POP JUMP JUMPDEST PUSH0 DUP2 SWAP1 POP SWAP2 SWAP1 POP JUMP JUMPDEST PUSH0 PUSH2 0x239 PUSH2 0x234 PUSH2 0x22F DUP5 PUSH2 0x20D JUMP JUMPDEST PUSH2 0x216 JUMP JUMPDEST PUSH2 0xDD JUMP JUMPDEST SWAP1 POP SWAP2 SWAP1 POP JUMP JUMPDEST PUSH2 0x249 DUP2 PUSH2 0x21F JUMP JUMPDEST DUP3 MSTORE POP POP JUMP JUMPDEST PUSH0 PUSH1 0x20 DUP3 ADD SWAP1 POP PUSH2 0x262 PUSH0 DUP4 ADD DUP5 PUSH2 0x240 JUMP JUMPDEST SWAP3 SWAP2 POP POP JUMP INVALID LOG2 PUSH5 0x6970667358 0x22 SLT KECCAK256 0xB0 DIV 0x2C DUP10 0xDB 0xD1 0xBA 0xDB EXTCODESIZE PUSH13 0x2270DB707492B10E2081B7194C 0xAE SWAP9 0x4D BASEFEE DUP9 0xE0 0xFB MULMOD GASPRICE PUSH5 0x736F6C6343 STOP ADDMOD XOR STOP CALLER "
    },
    "gasEstimates": {
      "creation": {
        "codeDepositCost": "134000",
        "executionCost": "175",
        "totalCost": "134175"
      },
      "external": {
        "approveDeposit()": "1457",
        "deposit(uint256,uint256,address)": "infinite"
      }
    },
    "methodIdentifiers": {
      "approveDeposit()": "c314efb1",
      "deposit(uint256,uint256,address)": "8dbdbe6d"
    }
  },
  "abi": [
    {
      "anonymous": false,
      "inputs": [
        {
          "indexed": false,
          "internalType": "uint256",
          "name": "nonce",
          "type": "uint256"
        }
      ],
      "name": "depositApprovalEvent",
      "type": "event"
    },
    {
      "anonymous": false,
      "inputs": [
        {
          "indexed": false,
          "internalType": "uint256",
          "name": "nonce",
          "type": "uint256"
        },
        {
          "indexed": false,
          "internalType": "uint256",
          "name": "amount",
          "type": "uint256"
        },
        {
          "indexed": false,
          "internalType": "address",
          "name": "targetAddress",
          "type": "address"
        }
      ],
      "name": "depositEvent",
      "type": "event"
    },
    {
      "inputs": [],
      "name": "approveDeposit",
      "outputs": [],
      "stateMutability": "nonpayable",
      "type": "function"
    },
    {
      "inputs": [
        {
          "internalType": "uint256",
          "name": "nonce",
          "type": "uint256"
        },
        {
          "internalType": "uint256",
          "name": "amount",
          "type": "uint256"
        },
        {
          "internalType": "address",
          "name": "targetAddress",
          "type": "address"
        }
      ],
      "name": "deposit",
      "outputs": [],
      "stateMutability": "nonpayable",
      "type": "function"
    }
  ]
}