{
  "data": {
    "bytecode": {
      "linkReferences": {},
      "object": "608060405234801561000f575f80fd5b5061010f8061001d5f395ff3fe6080604052348015600e575f80fd5b50600436106026575f3560e01c80638ecdb18b14602a575b5f80fd5b60306032565b005b7fe75028ff36bb6473da3731a30e1aeeae9988e2415dba2c4e91e0357955065fba604051605d9060bd565b60405180910390a1565b5f82825260208201905092915050565b7f546f206a65737420746573746f7779206576656e7421000000000000000000005f82015250565b5f60a96016836067565b915060b2826077565b602082019050919050565b5f6020820190508181035f83015260d281609f565b905091905056fea26469706673582212206350bb5321524aa5d5e141f7f75643451ff2a3e95c24cde8a8a857f4b1abb69864736f6c63430008180033",
      "opcodes": "PUSH1 0x80 PUSH1 0x40 MSTORE CALLVALUE DUP1 ISZERO PUSH2 0xF JUMPI PUSH0 DUP1 REVERT JUMPDEST POP PUSH2 0x10F DUP1 PUSH2 0x1D PUSH0 CODECOPY PUSH0 RETURN INVALID PUSH1 0x80 PUSH1 0x40 MSTORE CALLVALUE DUP1 ISZERO PUSH1 0xE JUMPI PUSH0 DUP1 REVERT JUMPDEST POP PUSH1 0x4 CALLDATASIZE LT PUSH1 0x26 JUMPI PUSH0 CALLDATALOAD PUSH1 0xE0 SHR DUP1 PUSH4 0x8ECDB18B EQ PUSH1 0x2A JUMPI JUMPDEST PUSH0 DUP1 REVERT JUMPDEST PUSH1 0x30 PUSH1 0x32 JUMP JUMPDEST STOP JUMPDEST PUSH32 0xE75028FF36BB6473DA3731A30E1AEEAE9988E2415DBA2C4E91E0357955065FBA PUSH1 0x40 MLOAD PUSH1 0x5D SWAP1 PUSH1 0xBD JUMP JUMPDEST PUSH1 0x40 MLOAD DUP1 SWAP2 SUB SWAP1 LOG1 JUMP JUMPDEST PUSH0 DUP3 DUP3 MSTORE PUSH1 0x20 DUP3 ADD SWAP1 POP SWAP3 SWAP2 POP POP JUMP JUMPDEST PUSH32 0x546F206A65737420746573746F7779206576656E742100000000000000000000 PUSH0 DUP3 ADD MSTORE POP JUMP JUMPDEST PUSH0 PUSH1 0xA9 PUSH1 0x16 DUP4 PUSH1 0x67 JUMP JUMPDEST SWAP2 POP PUSH1 0xB2 DUP3 PUSH1 0x77 JUMP JUMPDEST PUSH1 0x20 DUP3 ADD SWAP1 POP SWAP2 SWAP1 POP JUMP JUMPDEST PUSH0 PUSH1 0x20 DUP3 ADD SWAP1 POP DUP2 DUP2 SUB PUSH0 DUP4 ADD MSTORE PUSH1 0xD2 DUP2 PUSH1 0x9F JUMP JUMPDEST SWAP1 POP SWAP2 SWAP1 POP JUMP INVALID LOG2 PUSH5 0x6970667358 0x22 SLT KECCAK256 PUSH4 0x50BB5321 MSTORE BLOBBASEFEE 0xA5 0xD5 0xE1 COINBASE 0xF7 0xF7 JUMP NUMBER GASLIMIT 0x1F CALLCODE LOG3 0xE9 TLOAD 0x24 0xCD 0xE8 0xA8 0xA8 JUMPI DELEGATECALL 0xB1 0xAB 0xB6 SWAP9 PUSH5 0x736F6C6343 STOP ADDMOD XOR STOP CALLER "
    },
    "gasEstimates": {
      "creation": {
        "codeDepositCost": "54200",
        "executionCost": "103",
        "totalCost": "54303"
      },
      "external": {
        "wyzwolEvent()": "1918"
      }
    },
    "methodIdentifiers": {
      "wyzwolEvent()": "8ecdb18b"
    }
  },
  "abi": [
    {
      "anonymous": false,
      "inputs": [
        {
          "indexed": false,
          "internalType": "string",
          "name": "message",
          "type": "string"
        }
      ],
      "name": "TestEvent",
      "type": "event"
    },
    {
      "inputs": [],
      "name": "wyzwolEvent",
      "outputs": [],
      "stateMutability": "nonpayable",
      "type": "function"
    }
  ]
}